{
  "_format": "hh-sol-artifact-1",
  "contractName": "MainManager",
  "sourceName": "contracts/MainManager.sol",
  "abi": [
    {
      "inputs": [],
      "name": "InvalidInitialization",
      "type": "error"
    },
    {
      "inputs": [],
      "name": "NotInitializing",
      "type": "error"
    },
    {
      "inputs": [
        {
          "internalType": "address",
          "name": "owner",
          "type": "address"
        }
      ],
      "name": "OwnableInvalidOwner",
      "type": "error"
    },
    {
      "inputs": [
        {
          "internalType": "address",
          "name": "account",
          "type": "address"
        }
      ],
      "name": "OwnableUnauthorizedAccount",
      "type": "error"
    },
    {
      "anonymous": false,
      "inputs": [
        {
          "indexed": false,
          "internalType": "bytes32",
          "name": "donId",
          "type": "bytes32"
        },
        {
          "indexed": false,
          "internalType": "uint64",
          "name": "subscriptionId",
          "type": "uint64"
        }
      ],
      "name": "GlobalConfigUpdated",
      "type": "event"
    },
    {
      "anonymous": false,
      "inputs": [
        {
          "indexed": false,
          "internalType": "uint64",
          "name": "version",
          "type": "uint64"
        }
      ],
      "name": "Initialized",
      "type": "event"
    },
    {
      "anonymous": false,
      "inputs": [
        {
          "indexed": true,
          "internalType": "address",
          "name": "previousOwner",
          "type": "address"
        },
        {
          "indexed": true,
          "internalType": "address",
          "name": "newOwner",
          "type": "address"
        }
      ],
      "name": "OwnershipTransferred",
      "type": "event"
    },
    {
      "anonymous": false,
      "inputs": [
        {
          "indexed": false,
          "internalType": "address",
          "name": "factory",
          "type": "address"
        },
        {
          "indexed": false,
          "internalType": "address",
          "name": "beacon",
          "type": "address"
        }
      ],
      "name": "ProjectManagerInitialized",
      "type": "event"
    },
    {
      "inputs": [],
      "name": "beacon",
      "outputs": [
        {
          "internalType": "contract UpgradeableBeacon",
          "name": "",
          "type": "address"
        }
      ],
      "stateMutability": "view",
      "type": "function"
    },
    {
      "inputs": [
        {
          "internalType": "string",
          "name": "landDetails",
          "type": "string"
        }
      ],
      "name": "createProject",
      "outputs": [
        {
          "internalType": "address",
          "name": "",
          "type": "address"
        }
      ],
      "stateMutability": "nonpayable",
      "type": "function"
    },
    {
      "inputs": [],
      "name": "defaultSource",
      "outputs": [
        {
          "internalType": "string",
          "name": "",
          "type": "string"
        }
      ],
      "stateMutability": "view",
      "type": "function"
    },
    {
      "inputs": [],
      "name": "donId",
      "outputs": [
        {
          "internalType": "bytes32",
          "name": "",
          "type": "bytes32"
        }
      ],
      "stateMutability": "view",
      "type": "function"
    },
    {
      "inputs": [],
      "name": "factory",
      "outputs": [
        {
          "internalType": "contract ICarbonProjectFactory",
          "name": "",
          "type": "address"
        }
      ],
      "stateMutability": "view",
      "type": "function"
    },
    {
      "inputs": [
        {
          "internalType": "address",
          "name": "_factory",
          "type": "address"
        },
        {
          "internalType": "address",
          "name": "_beacon",
          "type": "address"
        }
      ],
      "name": "initialize",
      "outputs": [],
      "stateMutability": "nonpayable",
      "type": "function"
    },
    {
      "inputs": [],
      "name": "owner",
      "outputs": [
        {
          "internalType": "address",
          "name": "",
          "type": "address"
        }
      ],
      "stateMutability": "view",
      "type": "function"
    },
    {
      "inputs": [],
      "name": "renounceOwnership",
      "outputs": [],
      "stateMutability": "nonpayable",
      "type": "function"
    },
    {
      "inputs": [
        {
          "internalType": "bytes32",
          "name": "_donId",
          "type": "bytes32"
        },
        {
          "internalType": "uint64",
          "name": "_subscriptionId",
          "type": "uint64"
        },
        {
          "internalType": "string",
          "name": "_source",
          "type": "string"
        }
      ],
      "name": "setGlobalChainlinkConfig",
      "outputs": [],
      "stateMutability": "nonpayable",
      "type": "function"
    },
    {
      "inputs": [],
      "name": "subscriptionId",
      "outputs": [
        {
          "internalType": "uint64",
          "name": "",
          "type": "uint64"
        }
      ],
      "stateMutability": "view",
      "type": "function"
    },
    {
      "inputs": [
        {
          "internalType": "address",
          "name": "newOwner",
          "type": "address"
        }
      ],
      "name": "transferOwnership",
      "outputs": [],
      "stateMutability": "nonpayable",
      "type": "function"
    },
    {
      "inputs": [
        {
          "internalType": "address",
          "name": "newImplementation",
          "type": "address"
        }
      ],
      "name": "upgradeProjectImplementation",
      "outputs": [],
      "stateMutability": "nonpayable",
      "type": "function"
    }
  ],
  "bytecode": "0x608060405234801561001057600080fd5b50610ab8806100206000396000f3fe608060405234801561001057600080fd5b50600436106100b45760003560e01c80638da5cb5b116100715780638da5cb5b1461015b5780638dbe7b9d1461018b578063a15fe0e9146101a2578063c45a0155146101b5578063f2fde38b146101c8578063fcf98a9f146101db57600080fd5b806309c1ba2e146100b957806315ee4df1146100eb5780632965a57614610116578063485cc9551461012b57806359659e9014610140578063715018a614610153575b600080fd5b6003546100cd9067ffffffffffffffff1681565b60405167ffffffffffffffff90911681526020015b60405180910390f35b6100fe6100f936600461078e565b6101ee565b6040516001600160a01b0390911681526020016100e2565b61011e61026a565b6040516100e29190610811565b61013e610139366004610840565b6102f8565b005b6001546100fe906001600160a01b031681565b61013e61045f565b7f9016d09d72d40fdae2fd8ceac6b6234c7706214fd39c1cd1e609a0528c199300546001600160a01b03166100fe565b61019460025481565b6040519081526020016100e2565b61013e6101b0366004610879565b610473565b6000546100fe906001600160a01b031681565b61013e6101d6366004610879565b6104dd565b61013e6101e9366004610896565b610520565b600080546040516391754a5d60e01b81526001600160a01b03909116906391754a5d9061022190859042906004016108f8565b6020604051808303816000875af1158015610240573d6000803e3d6000fd5b505050506040513d601f19601f82011682018060405250810190610264919061091a565b92915050565b6004805461027790610937565b80601f01602080910402602001604051908101604052809291908181526020018280546102a390610937565b80156102f05780601f106102c5576101008083540402835291602001916102f0565b820191906000526020600020905b8154815290600101906020018083116102d357829003601f168201915b505050505081565b600061030261059e565b805490915060ff600160401b820416159067ffffffffffffffff1660008115801561032a5750825b905060008267ffffffffffffffff1660011480156103475750303b155b905081158015610355575080155b156103735760405163f92ee8a960e01b815260040160405180910390fd5b845467ffffffffffffffff19166001178555831561039d57845460ff60401b1916600160401b1785555b6103a6336105c7565b600080546001600160a01b038981166001600160a01b0319928316811790935560018054918a169190921681179091556040805192835260208301919091527f25d4050ff93435d838e7f312ecbc2913244c0b09447a0bfd2f56c7a6bb59b459910160405180910390a1831561045657845460ff60401b19168555604051600181527fc7f505b2f371ae2175ee4913f4499e1f2633a7b5936321eed1cdaeb6115181d29060200160405180910390a15b50505050505050565b6104676105d8565b6104716000610633565b565b61047b6105d8565b600154604051631b2ce7f360e11b81526001600160a01b03838116600483015290911690633659cfe690602401600060405180830381600087803b1580156104c257600080fd5b505af11580156104d6573d6000803e3d6000fd5b5050505050565b6104e56105d8565b6001600160a01b03811661051457604051631e4fbdf760e01b8152600060048201526024015b60405180910390fd5b61051d81610633565b50565b6105286105d8565b60028390556003805467ffffffffffffffff191667ffffffffffffffff8416179055600461055682826109c2565b506040805184815267ffffffffffffffff841660208201527f7f9b5da67dd3d030909050f25630d1fd9909b54bdfa2d10e2bfbd5432800cecd910160405180910390a1505050565b6000807ff0c57e16840df040f15088dc2f81fe391c3923bec73e23a9662efc9c229c6a00610264565b6105cf6106a4565b61051d816106c9565b3361060a7f9016d09d72d40fdae2fd8ceac6b6234c7706214fd39c1cd1e609a0528c199300546001600160a01b031690565b6001600160a01b0316146104715760405163118cdaa760e01b815233600482015260240161050b565b7f9016d09d72d40fdae2fd8ceac6b6234c7706214fd39c1cd1e609a0528c19930080546001600160a01b031981166001600160a01b03848116918217845560405192169182907f8be0079c531659141344cd1fd0a4f28419497f9722a3daafe3b4186f6b6457e090600090a3505050565b6106ac6106d1565b61047157604051631afcd79f60e31b815260040160405180910390fd5b6104e56106a4565b60006106db61059e565b54600160401b900460ff16919050565b634e487b7160e01b600052604160045260246000fd5b600082601f83011261071257600080fd5b813567ffffffffffffffff8082111561072d5761072d6106eb565b604051601f8301601f19908116603f01168101908282118183101715610755576107556106eb565b8160405283815286602085880101111561076e57600080fd5b836020870160208301376000602085830101528094505050505092915050565b6000602082840312156107a057600080fd5b813567ffffffffffffffff8111156107b757600080fd5b6107c384828501610701565b949350505050565b6000815180845260005b818110156107f1576020818501810151868301820152016107d5565b506000602082860101526020601f19601f83011685010191505092915050565b60208152600061082460208301846107cb565b9392505050565b6001600160a01b038116811461051d57600080fd5b6000806040838503121561085357600080fd5b823561085e8161082b565b9150602083013561086e8161082b565b809150509250929050565b60006020828403121561088b57600080fd5b81356108248161082b565b6000806000606084860312156108ab57600080fd5b83359250602084013567ffffffffffffffff80821682146108cb57600080fd5b909250604085013590808211156108e157600080fd5b506108ee86828701610701565b9150509250925092565b60408152600061090b60408301856107cb565b90508260208301529392505050565b60006020828403121561092c57600080fd5b81516108248161082b565b600181811c9082168061094b57607f821691505b60208210810361096b57634e487b7160e01b600052602260045260246000fd5b50919050565b601f8211156109bd576000816000526020600020601f850160051c8101602086101561099a5750805b601f850160051c820191505b818110156109b9578281556001016109a6565b5050505b505050565b815167ffffffffffffffff8111156109dc576109dc6106eb565b6109f0816109ea8454610937565b84610971565b602080601f831160018114610a255760008415610a0d5750858301515b600019600386901b1c1916600185901b1785556109b9565b600085815260208120601f198616915b82811015610a5457888601518255948401946001909101908401610a35565b5085821015610a725787850151600019600388901b60f8161c191681555b5050505050600190811b0190555056fea2646970667358221220241996a4fd9f10063f99411d2b33730fcaf485cebc2c05fc3e9c009f2c057c3b64736f6c63430008160033",
  "linkReferences": {},
  "deployedLinkReferences": {}
}