{
  "_format": "hh-sol-artifact-1",
  "contractName": "ProjectImplementation",
  "sourceName": "contracts/ProjectImplementation.sol",
  "abi": [
    {
      "inputs": [
        {
          "internalType": "address",
          "name": "spender",
          "type": "address"
        },
        {
          "internalType": "uint256",
          "name": "allowance",
          "type": "uint256"
        },
        {
          "internalType": "uint256",
          "name": "needed",
          "type": "uint256"
        }
      ],
      "name": "ERC20InsufficientAllowance",
      "type": "error"
    },
    {
      "inputs": [
        {
          "internalType": "address",
          "name": "sender",
          "type": "address"
        },
        {
          "internalType": "uint256",
          "name": "balance",
          "type": "uint256"
        },
        {
          "internalType": "uint256",
          "name": "needed",
          "type": "uint256"
        }
      ],
      "name": "ERC20InsufficientBalance",
      "type": "error"
    },
    {
      "inputs": [
        {
          "internalType": "address",
          "name": "approver",
          "type": "address"
        }
      ],
      "name": "ERC20InvalidApprover",
      "type": "error"
    },
    {
      "inputs": [
        {
          "internalType": "address",
          "name": "receiver",
          "type": "address"
        }
      ],
      "name": "ERC20InvalidReceiver",
      "type": "error"
    },
    {
      "inputs": [
        {
          "internalType": "address",
          "name": "sender",
          "type": "address"
        }
      ],
      "name": "ERC20InvalidSender",
      "type": "error"
    },
    {
      "inputs": [
        {
          "internalType": "address",
          "name": "spender",
          "type": "address"
        }
      ],
      "name": "ERC20InvalidSpender",
      "type": "error"
    },
    {
      "inputs": [],
      "name": "InvalidInitialization",
      "type": "error"
    },
    {
      "inputs": [],
      "name": "NotInitializing",
      "type": "error"
    },
    {
      "inputs": [
        {
          "internalType": "address",
          "name": "owner",
          "type": "address"
        }
      ],
      "name": "OwnableInvalidOwner",
      "type": "error"
    },
    {
      "inputs": [
        {
          "internalType": "address",
          "name": "account",
          "type": "address"
        }
      ],
      "name": "OwnableUnauthorizedAccount",
      "type": "error"
    },
    {
      "anonymous": false,
      "inputs": [
        {
          "indexed": true,
          "internalType": "address",
          "name": "owner",
          "type": "address"
        },
        {
          "indexed": true,
          "internalType": "address",
          "name": "spender",
          "type": "address"
        },
        {
          "indexed": false,
          "internalType": "uint256",
          "name": "value",
          "type": "uint256"
        }
      ],
      "name": "Approval",
      "type": "event"
    },
    {
      "anonymous": false,
      "inputs": [
        {
          "indexed": false,
          "internalType": "uint256",
          "name": "amount",
          "type": "uint256"
        }
      ],
      "name": "BufferUsed",
      "type": "event"
    },
    {
      "anonymous": false,
      "inputs": [
        {
          "indexed": true,
          "internalType": "bytes32",
          "name": "requestId",
          "type": "bytes32"
        }
      ],
      "name": "CarbonDataRequested",
      "type": "event"
    },
    {
      "anonymous": false,
      "inputs": [
        {
          "indexed": false,
          "internalType": "uint256",
          "name": "tradableAmount",
          "type": "uint256"
        },
        {
          "indexed": false,
          "internalType": "uint256",
          "name": "bufferAmount",
          "type": "uint256"
        }
      ],
      "name": "CreditsIssued",
      "type": "event"
    },
    {
      "anonymous": false,
      "inputs": [
        {
          "indexed": false,
          "internalType": "uint64",
          "name": "version",
          "type": "uint64"
        }
      ],
      "name": "Initialized",
      "type": "event"
    },
    {
      "anonymous": false,
      "inputs": [
        {
          "indexed": true,
          "internalType": "address",
          "name": "previousOwner",
          "type": "address"
        },
        {
          "indexed": true,
          "internalType": "address",
          "name": "newOwner",
          "type": "address"
        }
      ],
      "name": "OwnershipTransferred",
      "type": "event"
    },
    {
      "anonymous": false,
      "inputs": [
        {
          "indexed": true,
          "internalType": "address",
          "name": "from",
          "type": "address"
        },
        {
          "indexed": true,
          "internalType": "address",
          "name": "to",
          "type": "address"
        },
        {
          "indexed": false,
          "internalType": "uint256",
          "name": "value",
          "type": "uint256"
        }
      ],
      "name": "Transfer",
      "type": "event"
    },
    {
      "inputs": [],
      "name": "BUFFER_PERCENTAGE",
      "outputs": [
        {
          "internalType": "uint256",
          "name": "",
          "type": "uint256"
        }
      ],
      "stateMutability": "view",
      "type": "function"
    },
    {
      "inputs": [
        {
          "internalType": "address",
          "name": "owner",
          "type": "address"
        },
        {
          "internalType": "address",
          "name": "spender",
          "type": "address"
        }
      ],
      "name": "allowance",
      "outputs": [
        {
          "internalType": "uint256",
          "name": "",
          "type": "uint256"
        }
      ],
      "stateMutability": "view",
      "type": "function"
    },
    {
      "inputs": [
        {
          "internalType": "address",
          "name": "spender",
          "type": "address"
        },
        {
          "internalType": "uint256",
          "name": "value",
          "type": "uint256"
        }
      ],
      "name": "approve",
      "outputs": [
        {
          "internalType": "bool",
          "name": "",
          "type": "bool"
        }
      ],
      "stateMutability": "nonpayable",
      "type": "function"
    },
    {
      "inputs": [
        {
          "internalType": "address",
          "name": "account",
          "type": "address"
        }
      ],
      "name": "balanceOf",
      "outputs": [
        {
          "internalType": "uint256",
          "name": "",
          "type": "uint256"
        }
      ],
      "stateMutability": "view",
      "type": "function"
    },
    {
      "inputs": [],
      "name": "bufferCredits",
      "outputs": [
        {
          "internalType": "uint256",
          "name": "",
          "type": "uint256"
        }
      ],
      "stateMutability": "view",
      "type": "function"
    },
    {
      "inputs": [],
      "name": "decimals",
      "outputs": [
        {
          "internalType": "uint8",
          "name": "",
          "type": "uint8"
        }
      ],
      "stateMutability": "view",
      "type": "function"
    },
    {
      "inputs": [],
      "name": "donId",
      "outputs": [
        {
          "internalType": "bytes32",
          "name": "",
          "type": "bytes32"
        }
      ],
      "stateMutability": "view",
      "type": "function"
    },
    {
      "inputs": [
        {
          "internalType": "bytes32",
          "name": "requestId",
          "type": "bytes32"
        },
        {
          "internalType": "bytes",
          "name": "response",
          "type": "bytes"
        },
        {
          "internalType": "bytes",
          "name": "err",
          "type": "bytes"
        }
      ],
      "name": "fulfillRequest",
      "outputs": [],
      "stateMutability": "nonpayable",
      "type": "function"
    },
    {
      "inputs": [],
      "name": "functionsRouter",
      "outputs": [
        {
          "internalType": "address",
          "name": "",
          "type": "address"
        }
      ],
      "stateMutability": "view",
      "type": "function"
    },
    {
      "inputs": [
        {
          "internalType": "uint256",
          "name": "amount",
          "type": "uint256"
        }
      ],
      "name": "handleReversal",
      "outputs": [],
      "stateMutability": "nonpayable",
      "type": "function"
    },
    {
      "inputs": [
        {
          "internalType": "address",
          "name": "_functionsRouter",
          "type": "address"
        },
        {
          "internalType": "uint256",
          "name": "_projectId",
          "type": "uint256"
        },
        {
          "internalType": "address",
          "name": "_projectOwner",
          "type": "address"
        },
        {
          "internalType": "string",
          "name": "_landDetails",
          "type": "string"
        },
        {
          "internalType": "uint256",
          "name": "_startDate",
          "type": "uint256"
        }
      ],
      "name": "initialize",
      "outputs": [],
      "stateMutability": "nonpayable",
      "type": "function"
    },
    {
      "inputs": [],
      "name": "landDetails",
      "outputs": [
        {
          "internalType": "string",
          "name": "",
          "type": "string"
        }
      ],
      "stateMutability": "view",
      "type": "function"
    },
    {
      "inputs": [],
      "name": "name",
      "outputs": [
        {
          "internalType": "string",
          "name": "",
          "type": "string"
        }
      ],
      "stateMutability": "view",
      "type": "function"
    },
    {
      "inputs": [],
      "name": "owner",
      "outputs": [
        {
          "internalType": "address",
          "name": "",
          "type": "address"
        }
      ],
      "stateMutability": "view",
      "type": "function"
    },
    {
      "inputs": [
        {
          "internalType": "bytes32",
          "name": "",
          "type": "bytes32"
        }
      ],
      "name": "pendingRequests",
      "outputs": [
        {
          "internalType": "bool",
          "name": "",
          "type": "bool"
        }
      ],
      "stateMutability": "view",
      "type": "function"
    },
    {
      "inputs": [],
      "name": "projectId",
      "outputs": [
        {
          "internalType": "uint256",
          "name": "",
          "type": "uint256"
        }
      ],
      "stateMutability": "view",
      "type": "function"
    },
    {
      "inputs": [],
      "name": "projectOwner",
      "outputs": [
        {
          "internalType": "address",
          "name": "",
          "type": "address"
        }
      ],
      "stateMutability": "view",
      "type": "function"
    },
    {
      "inputs": [],
      "name": "renounceOwnership",
      "outputs": [],
      "stateMutability": "nonpayable",
      "type": "function"
    },
    {
      "inputs": [],
      "name": "requestCarbonData",
      "outputs": [],
      "stateMutability": "nonpayable",
      "type": "function"
    },
    {
      "inputs": [
        {
          "internalType": "bytes32",
          "name": "_donId",
          "type": "bytes32"
        },
        {
          "internalType": "uint64",
          "name": "_subscriptionId",
          "type": "uint64"
        },
        {
          "internalType": "string",
          "name": "_source",
          "type": "string"
        }
      ],
      "name": "setChainlinkConfig",
      "outputs": [],
      "stateMutability": "nonpayable",
      "type": "function"
    },
    {
      "inputs": [],
      "name": "source",
      "outputs": [
        {
          "internalType": "string",
          "name": "",
          "type": "string"
        }
      ],
      "stateMutability": "view",
      "type": "function"
    },
    {
      "inputs": [],
      "name": "startDate",
      "outputs": [
        {
          "internalType": "uint256",
          "name": "",
          "type": "uint256"
        }
      ],
      "stateMutability": "view",
      "type": "function"
    },
    {
      "inputs": [],
      "name": "subscriptionId",
      "outputs": [
        {
          "internalType": "uint64",
          "name": "",
          "type": "uint64"
        }
      ],
      "stateMutability": "view",
      "type": "function"
    },
    {
      "inputs": [],
      "name": "symbol",
      "outputs": [
        {
          "internalType": "string",
          "name": "",
          "type": "string"
        }
      ],
      "stateMutability": "view",
      "type": "function"
    },
    {
      "inputs": [],
      "name": "totalCreditsIssued",
      "outputs": [
        {
          "internalType": "uint256",
          "name": "",
          "type": "uint256"
        }
      ],
      "stateMutability": "view",
      "type": "function"
    },
    {
      "inputs": [],
      "name": "totalSupply",
      "outputs": [
        {
          "internalType": "uint256",
          "name": "",
          "type": "uint256"
        }
      ],
      "stateMutability": "view",
      "type": "function"
    },
    {
      "inputs": [
        {
          "internalType": "address",
          "name": "to",
          "type": "address"
        },
        {
          "internalType": "uint256",
          "name": "value",
          "type": "uint256"
        }
      ],
      "name": "transfer",
      "outputs": [
        {
          "internalType": "bool",
          "name": "",
          "type": "bool"
        }
      ],
      "stateMutability": "nonpayable",
      "type": "function"
    },
    {
      "inputs": [
        {
          "internalType": "address",
          "name": "from",
          "type": "address"
        },
        {
          "internalType": "address",
          "name": "to",
          "type": "address"
        },
        {
          "internalType": "uint256",
          "name": "value",
          "type": "uint256"
        }
      ],
      "name": "transferFrom",
      "outputs": [
        {
          "internalType": "bool",
          "name": "",
          "type": "bool"
        }
      ],
      "stateMutability": "nonpayable",
      "type": "function"
    },
    {
      "inputs": [
        {
          "internalType": "address",
          "name": "newOwner",
          "type": "address"
        }
      ],
      "name": "transferOwnership",
      "outputs": [],
      "stateMutability": "nonpayable",
      "type": "function"
    }
  ],
  "bytecode": "0x608060405234801561001057600080fd5b506119f2806100206000396000f3fe608060405234801561001057600080fd5b50600436106101cf5760003560e01c806370a082311161010457806395d89b41116100a2578063bcb2bd1211610071578063bcb2bd12146103f9578063d58f05da1461040c578063dd62ed3e1461041f578063f2fde38b1461043257600080fd5b806395d89b41146103b8578063a4475ce4146103c0578063a9059cbb146103d3578063b5850788146103e657600080fd5b806386e1afc6116100de57806386e1afc61461035a5780638da5cb5b146103635780638dbe7b9d146103a7578063952038c2146103b057600080fd5b806370a0823114610314578063715018a61461034a57806383a862651461035257600080fd5b80632795ad20116101715780633fafa1271161014b5780633fafa127146102e85780634a23230a146102f15780635616cd5d1461030457806367e828bf1461030c57600080fd5b80632795ad20146102a1578063313ce567146102c457806339b05122146102d357600080fd5b80630b97bc86116101ad5780630b97bc861461024757806318160ddd1461025e5780632008d7a01461028557806323b872dd1461028e57600080fd5b806306fdde03146101d4578063095ea7b3146101f257806309c1ba2e14610215575b600080fd5b6101dc610445565b6040516101e991906113ef565b60405180910390f35b610205610200366004611425565b610508565b60405190151581526020016101e9565b60005461022f90600160a01b90046001600160401b031681565b6040516001600160401b0390911681526020016101e9565b61025060065481565b6040519081526020016101e9565b7f52c63247e1f47db19d5ce0460030c497f067ca4cebf71ba98eeadabe20bace0254610250565b61025060095481565b61020561029c36600461144f565b610522565b6102056102af36600461148b565b60036020526000908152604090205460ff1681565b604051601281526020016101e9565b6102e66102e1366004611546565b610546565b005b61025060045481565b6102e66102ff3660046115b2565b6106f4565b6101dc61089e565b6101dc61092c565b610250610322366004611621565b6001600160a01b0316600090815260008051602061199d833981519152602052604090205490565b6102e6610939565b6102e661094d565b61025060085481565b7f9016d09d72d40fdae2fd8ceac6b6234c7706214fd39c1cd1e609a0528c199300546001600160a01b03165b6040516001600160a01b0390911681526020016101e9565b61025060015481565b610250600a81565b6101dc610c88565b60075461038f906001600160a01b031681565b6102056103e1366004611425565b610cc7565b6102e66103f436600461163c565b610cd5565b6102e661040736600461148b565b610d13565b60005461038f906001600160a01b031681565b61025061042d366004611686565b610dba565b6102e6610440366004611621565b610e04565b7f52c63247e1f47db19d5ce0460030c497f067ca4cebf71ba98eeadabe20bace03805460609160008051602061199d83398151915291610484906116b9565b80601f01602080910402602001604051908101604052809291908181526020018280546104b0906116b9565b80156104fd5780601f106104d2576101008083540402835291602001916104fd565b820191906000526020600020905b8154815290600101906020018083116104e057829003601f168201915b505050505091505090565b600033610516818585610e42565b60019150505b92915050565b600033610530858285610e54565b61053b858585610eb5565b506001949350505050565b6000546001600160a01b031633146105a55760405162461bcd60e51b815260206004820152601760248201527f4f6e6c7920726f757465722063616e2066756c66696c6c00000000000000000060448201526064015b60405180910390fd5b60008381526003602052604090205460ff166105f55760405162461bcd60e51b815260206004820152600f60248201526e125b9d985b1a59081c995c5d595cdd608a1b604482015260640161059c565b6000838152600360205260409020805460ff1916905580511561061757505050565b60008280602001905181019061062d91906116f3565b90506103e881106106ee5760006064610647600a84611722565b6106519190611739565b9050600061065f828461175b565b600754909150610678906001600160a01b031682610f14565b6106823083610f14565b8160086000828254610694919061176e565b9250508190555082600960008282546106ad919061176e565b909155505060408051828152602081018490527f3e7363ad1c012fb23364530943587c40870d641e117d3e63614f6761e58f5e13910160405180910390a150505b50505050565b60006106fe610f4e565b805490915060ff600160401b82041615906001600160401b03166000811580156107255750825b90506000826001600160401b031660011480156107415750303b155b90508115801561074f575080155b1561076d5760405163f92ee8a960e01b815260040160405180910390fd5b845467ffffffffffffffff19166001178555831561079757845460ff60401b1916600160401b1785555b60405169436172626f6e4c696e6b60b01b6020820152602a81018a90526107f690604a0160408051601f19818403018152908290526110d360f21b6020830152602282018c905290604201604051602081830303815290604052610f77565b6107ff88610f89565b6004899055600780546001600160a01b0319166001600160a01b038a16179055600561082b88826117d1565b506006869055600080546001600160a01b0319166001600160a01b038c16179055831561089257845460ff60401b19168555604051600181527fc7f505b2f371ae2175ee4913f4499e1f2633a7b5936321eed1cdaeb6115181d29060200160405180910390a15b50505050505050505050565b600580546108ab906116b9565b80601f01602080910402602001604051908101604052809291908181526020018280546108d7906116b9565b80156109245780601f106108f957610100808354040283529160200191610924565b820191906000526020600020905b81548152906001019060200180831161090757829003601f168201915b505050505081565b600280546108ab906116b9565b610941610f9a565b61094b6000610ff5565b565b6007546001600160a01b0316331461099b5760405162461bcd60e51b81526020600482015260116024820152702737ba10383937b532b1ba1037bbb732b960791b604482015260640161059c565b6000600280546109aa906116b9565b9050116109f15760405162461bcd60e51b815260206004820152601560248201527414dbdd5c98d9481b9bdd0818dbdb999a59dd5c9959605a1b604482015260640161059c565b6040805160c08101825260608082526020820181905291810182905260009181018290526080810182905260a0810191909152610ac160028054610a34906116b9565b80601f0160208091040260200160405190810160405280929190818152602001828054610a60906116b9565b8015610aad5780601f10610a8257610100808354040283529160200191610aad565b820191906000526020600020905b815481529060010190602001808311610a9057829003601f168201915b50505050508261106690919063ffffffff16565b604080516001808252818301909252600091816020015b6060815260200190600190039081610ad857905050905060058054610afc906116b9565b80601f0160208091040260200160405190810160405280929190818152602001828054610b28906116b9565b8015610b755780601f10610b4a57610100808354040283529160200191610b75565b820191906000526020600020905b815481529060010190602001808311610b5857829003601f168201915b505050505081600081518110610b8d57610b8d611890565b6020908102919091010152610ba58282602090910152565b600080546001600160a01b0381169063461d276290600160a01b90046001600160401b0316610bd38661106a565b6001620493e06001546040518663ffffffff1660e01b8152600401610bfc9594939291906118a6565b6020604051808303816000875af1158015610c1b573d6000803e3d6000fd5b505050506040513d601f19601f82011682018060405250810190610c3f91906116f3565b600081815260036020526040808220805460ff191660011790555191925082917f21dd862a21e7f94d3342141de68598d78616852352e997352420762e2108e8eb9190a2505050565b7f52c63247e1f47db19d5ce0460030c497f067ca4cebf71ba98eeadabe20bace04805460609160008051602061199d83398151915291610484906116b9565b600033610516818585610eb5565b610cdd610f9a565b60018390556000805467ffffffffffffffff60a01b1916600160a01b6001600160401b0385160217905560026106ee82826117d1565b610d1b610f9a565b806008541015610d635760405162461bcd60e51b815260206004820152601360248201527224b739bab33334b1b4b2b73a10313ab33332b960691b604482015260640161059c565b610d6d30826110b5565b8060086000828254610d7f919061175b565b90915550506040518181527f1c63b4f4503312b0f9e37f9b14b9b352ec049a07390425ec31edd1b7781347489060200160405180910390a150565b6001600160a01b0391821660009081527f52c63247e1f47db19d5ce0460030c497f067ca4cebf71ba98eeadabe20bace016020908152604080832093909416825291909152205490565b610e0c610f9a565b6001600160a01b038116610e3657604051631e4fbdf760e01b81526000600482015260240161059c565b610e3f81610ff5565b50565b610e4f83838360016110eb565b505050565b6000610e608484610dba565b90506000198110156106ee5781811015610ea657604051637dc7a0d960e11b81526001600160a01b0384166004820152602481018290526044810183905260640161059c565b6106ee848484840360006110eb565b6001600160a01b038316610edf57604051634b637e8f60e11b81526000600482015260240161059c565b6001600160a01b038216610f095760405163ec442f0560e01b81526000600482015260240161059c565b610e4f8383836111d3565b6001600160a01b038216610f3e5760405163ec442f0560e01b81526000600482015260240161059c565b610f4a600083836111d3565b5050565b6000807ff0c57e16840df040f15088dc2f81fe391c3923bec73e23a9662efc9c229c6a0061051c565b610f7f611311565b610f4a8282611336565b610f91611311565b610e3f81611387565b33610fcc7f9016d09d72d40fdae2fd8ceac6b6234c7706214fd39c1cd1e609a0528c199300546001600160a01b031690565b6001600160a01b03161461094b5760405163118cdaa760e01b815233600482015260240161059c565b7f9016d09d72d40fdae2fd8ceac6b6234c7706214fd39c1cd1e609a0528c19930080546001600160a01b031981166001600160a01b03848116918217845560405192169182907f8be0079c531659141344cd1fd0a4f28419497f9722a3daafe3b4186f6b6457e090600090a3505050565b9052565b6060816000015182602001518360400151846060015185608001518660a0015160405160200161109f969594939291906118ef565b6040516020818303038152906040529050919050565b6001600160a01b0382166110df57604051634b637e8f60e11b81526000600482015260240161059c565b610f4a826000836111d3565b60008051602061199d8339815191526001600160a01b0385166111245760405163e602df0560e01b81526000600482015260240161059c565b6001600160a01b03841661114e57604051634a1406b160e11b81526000600482015260240161059c565b6001600160a01b038086166000908152600183016020908152604080832093881683529290522083905581156111cc57836001600160a01b0316856001600160a01b03167f8c5be1e5ebec7d5bd14f71427d1e84f3dd0314c0f7b2291e5b200ac8c7c3b925856040516111c391815260200190565b60405180910390a35b5050505050565b60008051602061199d8339815191526001600160a01b03841661120f5781816002016000828254611204919061176e565b909155506112819050565b6001600160a01b038416600090815260208290526040902054828110156112625760405163391434e360e21b81526001600160a01b0386166004820152602481018290526044810184905260640161059c565b6001600160a01b03851660009081526020839052604090209083900390555b6001600160a01b03831661129f5760028101805483900390556112be565b6001600160a01b03831660009081526020829052604090208054830190555b826001600160a01b0316846001600160a01b03167fddf252ad1be2c89b69c2b068fc378daa952ba7f163c4a11628f55a4df523b3ef8460405161130391815260200190565b60405180910390a350505050565b61131961138f565b61094b57604051631afcd79f60e31b815260040160405180910390fd5b61133e611311565b60008051602061199d8339815191527f52c63247e1f47db19d5ce0460030c497f067ca4cebf71ba98eeadabe20bace0361137884826117d1565b50600481016106ee83826117d1565b610e0c611311565b6000611399610f4e565b54600160401b900460ff16919050565b6000815180845260005b818110156113cf576020818501810151868301820152016113b3565b506000602082860101526020601f19601f83011685010191505092915050565b60208152600061140260208301846113a9565b9392505050565b80356001600160a01b038116811461142057600080fd5b919050565b6000806040838503121561143857600080fd5b61144183611409565b946020939093013593505050565b60008060006060848603121561146457600080fd5b61146d84611409565b925061147b60208501611409565b9150604084013590509250925092565b60006020828403121561149d57600080fd5b5035919050565b634e487b7160e01b600052604160045260246000fd5b600082601f8301126114cb57600080fd5b81356001600160401b03808211156114e5576114e56114a4565b604051601f8301601f19908116603f0116810190828211818310171561150d5761150d6114a4565b8160405283815286602085880101111561152657600080fd5b836020870160208301376000602085830101528094505050505092915050565b60008060006060848603121561155b57600080fd5b8335925060208401356001600160401b038082111561157957600080fd5b611585878388016114ba565b9350604086013591508082111561159b57600080fd5b506115a8868287016114ba565b9150509250925092565b600080600080600060a086880312156115ca57600080fd5b6115d386611409565b9450602086013593506115e860408701611409565b925060608601356001600160401b0381111561160357600080fd5b61160f888289016114ba565b95989497509295608001359392505050565b60006020828403121561163357600080fd5b61140282611409565b60008060006060848603121561165157600080fd5b8335925060208401356001600160401b03808216821461167057600080fd5b9092506040850135908082111561159b57600080fd5b6000806040838503121561169957600080fd5b6116a283611409565b91506116b060208401611409565b90509250929050565b600181811c908216806116cd57607f821691505b6020821081036116ed57634e487b7160e01b600052602260045260246000fd5b50919050565b60006020828403121561170557600080fd5b5051919050565b634e487b7160e01b600052601160045260246000fd5b808202811582820484141761051c5761051c61170c565b60008261175657634e487b7160e01b600052601260045260246000fd5b500490565b8181038181111561051c5761051c61170c565b8082018082111561051c5761051c61170c565b601f821115610e4f576000816000526020600020601f850160051c810160208610156117aa5750805b601f850160051c820191505b818110156117c9578281556001016117b6565b505050505050565b81516001600160401b038111156117ea576117ea6114a4565b6117fe816117f884546116b9565b84611781565b602080601f831160018114611833576000841561181b5750858301515b600019600386901b1c1916600185901b1785556117c9565b600085815260208120601f198616915b8281101561186257888601518255948401946001909101908401611843565b50858210156118805787850151600019600388901b60f8161c191681555b5050505050600190811b01905550565b634e487b7160e01b600052603260045260246000fd5b6001600160401b038616815260a0602082015260006118c860a08301876113a9565b61ffff9590951660408301525063ffffffff92909216606083015260809091015292915050565b60c08152600061190260c08301896113a9565b6020838203818501528189518084528284019150828160051b850101838c0160005b8381101561195257601f198784030185526119408383516113a9565b94860194925090850190600101611924565b50508681036040880152611966818c6113a9565b9550505050505061198260608301866001600160401b03169052565b63ffffffff93909316608082015260a0015294935050505056fe52c63247e1f47db19d5ce0460030c497f067ca4cebf71ba98eeadabe20bace00a2646970667358221220b76f7ab522d63494b166c76abb52dcf5dd5b56bfb72be20328a0b051563b5f4e64736f6c63430008160033",
  "linkReferences": {},
  "deployedLinkReferences": {}
}